:100000000C9438000C9455000C9455000C94550039
:100010000C9455000C9455000C9455000C9455000C
:100020000C9455000C9455000C9455000C945500FC
:100030000C9455000C9457000C9455000C946500DA
:100040000C9455000C9455000C9455000C945500DC
:100050000C9455000C9455000C9455000C945500CC
:100060000C9455000C9455000C9455000C945500BC
:1000700011241FBECFEFD0E1DEBFCDBF11E0A0E065
:10008000B1E0E8E3F1E002C005900D92A030B107C5
:10009000D9F711E0A0E0B1E001C01D92A230B10794
:1000A000E1F70E9470000C949A000C9400001F92DB
:1000B0000F920FB60F9211248F938FEF88B98F9103
:1000C0000F900FBE0F901F9018951F920F920FB6B2
:1000D0000F92112418B80F900FBE0F901F90189513
:1000E0008FEF87B918B888EE93E0909389008093DA
:1000F000880083E080936F0081E0809381001092FC
:100100000101109200017894FFCF8FEF87B918B8E2
:1001100088EE93E0909389008093880083E0809339
:100120006F0081E080938100109201011092000124
:0801300078940895F894FFCFC4
:00000001FF
