:100000000C9438000C9455000C9455000C94550039
:100010000C9455000C9455000C9455000C9455000C
:100020000C9455000C9455000C9455000C945500FC
:100030000C9455000C9455000C9455000C945500EC
:100040000C9457000C9455000C9455000C945500DA
:100050000C9455000C9455000C9455000C945500CC
:100060000C9455000C9455000C9455000C945500BC
:1000700011241FBECFEFD0E1DEBFCDBF11E0A0E065
:10008000B1E0E0E2F5E002C005900D92A030B107CA
:10009000D9F711E0A0E0B1E001C01D92A232B10792
:1000A000E1F70E945D020C948E020C9400001F92F6
:1000B0000F920FB60F9211248F939F9380911E0180
:1000C00090911F01181619064CF480911E01909111
:1000D0001F01019790931F0180931E0180911201CF
:1000E00090911301181619064CF480911201909109
:1000F00013010197909313018093120180912001C5
:1001000090912101181619064CF4809120019091CC
:100110002101019790932101809320019F918F915C
:100120000F900FBE0F901F90189520910A013091EB
:100130000B012115310529F02130310509F051C09D
:1001400027C021E030E0309311012093100130935B
:1001500003012093020180911401909115018830D0
:10016000910589F430930D0120930C011092150133
:1001700010921401109211011092100110920301BB
:10018000109202012EC010920D0110920C0124C099
:100190003093170120931601309301012093000141
:1001A00080911401909115018830910589F4109285
:1001B0000D0110920C011092150110921401109271
:1001C000170110921601109201011092000109C04E
:1001D00030930D0120930C010196909315018093AB
:1001E000140180910C0190910D0190930B0180936B
:1001F0000A01089580910401809588B92091080131
:1002000030910901220F331F220F331F80911C01EF
:1002100090911D01280F391F2530310549F12630F5
:10022000310568F421303105E9F021303105C0F0A5
:1002300022303105C9F02430310529F517C02830A6
:100240003105D1F02930310520F426303105D9F4BB
:1002500011C02930310591F02A303105A1F411C0C7
:1002600015B8089580EA0BC080E609C08AE007C08F
:100270008AEA05C08AE603C086E001C086EA85B93D
:10028000089586E685B9089520910401309105010D
:100290002230310509F459C02330310540F42115CD
:1002A000310569F02130310509F053C01EC02330FB
:1002B000310589F12430310509F04BC046C08091E9
:1002C000100190911101892B19F081E090E008C094
:1002D0008091160190911701892BB9F183E090E08C
:1002E000909307018093060134C080911001909192
:1002F0001101892B49F030930701209306013093B7
:1003000009012093080125C082E090E09093070145
:100310008093060115C08091160190911701892BD9
:1003200039F0309307012093060182E090E008C085
:1003300084E090E0909307018093060181E090E0D3
:10034000909309018093080104C010920701109254
:100350000601809106019091070190930501809319
:1003600004010895209118013091190122303105BE
:1003700009F459C02330310540F42115310569F0E5
:100380002130310509F053C01EC02330310589F1F9
:100390002430310509F04BC046C080910201909194
:1003A0000301892B19F081E090E008C080910001E1
:1003B00090910101892BB9F183E090E090931B01AA
:1003C00080931A0134C08091020190910301892B1E
:1003D00049F030931B0120931A0130931D012093A3
:1003E0001C0125C082E090E090931B0180931A01CC
:1003F00015C08091160190911701892B39F0309327
:100400001B0120931A0182E090E008C084E090E094
:1004100090931B0180931A0181E090E090931D015D
:1004200080931C0104C010921B0110921A0180914C
:100430001A0190911B01909319018093180108955E
:1004400080EA85B9089580E685B908958AE085B97E
:10045000089586E085B9089515B808958AEA85B9A2
:1004600008958AE685B9089586EA85B9089586E6ED
:1004700085B9089592E090936E0089EF87BD83E07F
:1004800085BD94BD81E48093810080E280936F00FC
:1004900011B810B88FEF84B915B887B988B9109220
:1004A00009011092080110921D0110921C01109276
:1004B000150110921401789408950F931F93CF9310
:1004C000DF930E943A02C2E3D0E00AEF10E080918D
:1004D0001E0190911F01892B31F4D0931F01C0930D
:1004E0001E010E94B2018091120190911301892B8B
:1004F00031F4D0931301C09312010E944401809102
:10050000200190912101892B31F410932101009356
:1005100020010E9495000E94FA00D9CFF894FFCFE5
:00000001FF
