:10000000ADEF03F00000000000EF00F00000000082
:0A0010000000000000000000F3D71C
:10001C000B6A0A6A096A00500402F4CF09F0F3CFA4
:10002C0008F001500502F4CF0BF0F3CF0AF00050AA
:10003C000502F3500926F4500A22E86A0B220150FB
:10004C000402F3500926F4500A22E86A0B2208C075
:10005C0000F009C001F00AC002F00BC003F012005E
:10006C00CB50010F006E016A000E01222FC004F06C
:10007C00000E056ECDDF060E026E00C004F001C04E
:10008C0005F0025005E005320432059EFF0FFAD749
:10009C00040E016E04C000F0015004E00036009024
:1000AC00FF0FFBD7300E0014036E04C000F005C028
:1000BC0001F001320032019E01320032019E00C07B
:0C00CC00BEFF0F0EBD160350BD12120047
:0A00D8009494CA840C0EBD121200AD
:0E00E200FADF2DC02FF0C1DF8288829A120053
:0E00F000F3DF2DC02FF0BADF8298828A120053
:0800FE000AAE029E000E120082
:100106000B840BAE8EEF00F0010E036E026A016ADD
:0A011600006A0A360232FF0E1200E2
:0A0120009484CA94F00EBD1612007C
:0E012A00026A016A006A086A036A000E120087
:100138007F0E2D6E000E2E6ED7DF0D0E0B6EAF0EDE
:100148000C6EB60E0D6E0D2EFED70C2EFCD70B2E98
:08015800FAD70000E1DF1200FC
:100160000D0E0B6EAF0E0C6EB60E0D6E0D2EFED775
:0C0170000C2EFCD70B2EFAD7000012005A
:10017C000D0E0B6EAF0E0C6EB60E0D6E0D2EFED759
:0C018C000C2EFCD70B2EFAD7000012003E
:100198000D0E0B6EAF0E0C6EB60E0D6E0D2EFED73D
:0C01A8000C2EFCD70B2EFAD70000120022
:1001B4007F0E2D6E000E2E6E92DF0D0E0B6EAF0EA7
:1001C4000C6EB60E0D6E0D2EFED70C2EFCD70B2E1C
:0801D400FAD70000A3DF1200BE
:1001DC000C6A0E6A0250D8A407EF01F001C002F0BD
:1001EC0000C001F0006A0E860250D8A407EF01F09F
:1001FC0001C002F0016A0E960E880250D8B419EFB5
:10020C0001F00E50035ED8A4D8A01EEF01F0D890D8
:10021C0002BE23EF01F0003601360236032E0EEF3C
:10022C0001F01EEF01F0010E0C6E79DF26EF01F0EC
:10023C00020E0C6E62DF26EF01F0040E0C6E59DF1D
:02024C0012009E
:0C024E00240E0D6E0D2EFED700001200D5
:10025A000B820BAE37EF01F0036802680168006891
:08026A000A360232FF0E1200F9
:080272000B6A0B86FF0E12005F
:10027A00C26A070EC012C08E29C000F00036009074
:10028A00003600900050C212C280DCDFC282C2A2D5
:10029A0001D0FDD7C4CF01F0006AC3500012000E8E
:0602AA000112C2901200D7
:1002B0000A6A0350D8A40A800750D8A40A820A50B8
:1002C000D8B4BBEF01F0030AD8B474EF01F00AB060
:1002D0006FEF01F006AEB9EF01F0B7EF01F002AE3B
:1002E000B7EF01F0B9EF01F00250800B0A6E029EE9
:1002F0000650800B069E0A18D8B485EF01F00A500C
:10030000D8B4B7EF01F0B9EF01F00750035CD8B4EF
:100310008FEF01F0D8A0ABEF01F0B1EF01F0065084
:10032000025CD8B499EF01F0D8A0ABEF01F0B1EFC7
:1003300001F00550015CD8B4A3EF01F0D8A0ABEFF9
:1003400001F0B1EF01F00450005CD8B4BBEF01F054
:10035000D8B0B1EF01F00A52D8B4B9EF01F0B7EF5D
:1003600001F00A52D8B4B7EF01F0B9EF01F0D8802C
:0E0370001200D8901200D880D884120012001B
:10037E000900F5CFE6FF0006FBE10106F9E11200E8
:08038E00BE6ABD98BD9A120081
:100396007F0E2D6E000E2E6EA1DE4D0E0B6E190E0B
:1003A6000C6E4F0E0D6E0D2EFED70C2EFCD70B2E9F
:1003B600FAD700000000BDDEECDE7F0E2D6E000ECB
:1003C6002E6E93DE660E0B6E760E0C6EC10E0D6EE5
:1003D6000D2EFED70C2EFCD70B2EFAD7E8DEBDDE8F
:1003E6007F0E2D6E000E2E6E79DE330E0B6EBB0E5B
:1003F6000C6EDF0E0D6E0D2EFED70C2EFCD70B2EBF
:10040600FAD70000000095DEC4DE7F0E2D6E000ECA
:100416002E6E6BDE660E0B6E760E0C6EC10E0D6EBC
:100426000D2EFED70C2EFCD70B2EFAD7C0DEA3DE80
:100436007F0E2D6E000E2E6E58DE4D0E0B6E190EB3
:100446000C6E4F0E0D6E0D2EFED70C2EFCD70B2EFE
:10045600FAD700000000ABDE9CDE7F0E2D6E000E8C
:100466002E6E3CDE660E0B6E760E0C6EC10E0D6E9B
:100476000D2EFED70C2EFCD70B2EFAD75ADE120005
:10048600086A096A000E07620364C8EF02F00250A8
:1004960006180A6E075003267E0ED8A059EF02F002
:1004A600035ED8B0CCEF02F05DEF02F0035ED8A099
:1004B600D0EF02F0028E068E02C00EF001C00BF0E5
:1004C60000C00DF000500402F4CF0CF001500502FC
:1004D600F4CF00F0F3CF08F00402F3500C26F450EA
:1004E6000822000E00220D500502F3500C26F4508F
:1004F6000822000E002202500402F3500826F4508F
:10050600002202500502016A000E0122F350002665
:10051600F45001220D500602F3500826F450002232
:10052600026A000E012202220B500602F350002638
:10053600F4500122000E02220E500602F35001264C
:10054600F450022202BEB0EF02F008360036013641
:1005560002360306D8B4D0EF02F0C3EF02F0D8801B
:10056600800E08640030000E002201220222D8A06C
:10057600C3EF02F0023201320032034ACCEF02F03E
:100586000AAE029E000ED2EF02F0010ECBDDD2EFD4
:1005960002F0020E5FDED2EF02F0040EB1DD1200B1
:1005A60000C008F00150006E016A026A036A0B6A15
:1005B6000C6A016A026A036A960E036E0A6A00AE44
:1005C600EBEF02F0081E001E082AD8B4002A0A8E95
:1005D60000C001F008C000F0086A026AFCDD1200E3
:1005E6000450000A12E10550000A0FE10650000A05
:1005F6000CE10750000A09E1FF0E006EFF0E016EC6
:100606007F0E026EFF0E036E1200086A096A07501B
:10061600D8B49EEF03F00350D8B4A2EF03F0025013
:1006260006180A6E028E068E0E6A02C008F001C017
:100636000CF000C00DF004500D5E0550D8A0053C2E
:100646000C5E0650D8A0063C085E086A0C6A0D6A65
:10065600D8A035EF03F0D8900232013200320832CA
:10066600010E0E6E0750035ED8A042EF03F07E0E19
:100676000E240326D8B0A6EF03F048EF03F07E0E53
:100686000E240326D8A0AAEF03F0180E0B6E0D3623
:100696000C3608360036013602360E360450005E39
:1006A6000550D8A0053C015E0650D8A0063C025E67
:1006B60006340E120EA063EF03F00D806EEF03F00A
:1006C600045000260550D8B0053C01260650D8B087
:1006D600062802260D900B2E4AEF03F094EF03F046
:1006E600D8900036013602360E360450005E0550AC
:1006F600D8A0053C015E0650D8A0063C025E063432
:100706000E10010B0D26D8B00C2AD8B4082AD8A48E
:1007160094EF03F008320C320D32032AD8B4A6EF58
:1007260003F00AAE089E0850026E0C50016E0D5082
:10073600006EACEF03F0010E99DDACEF03F0020E94
:10074600F1DCACEF03F0040E85DDACEF03F0080E30
:04075600D7DC1200DA
:10075A00156A166A176A186A1A0EC16E6F0E926EB9
:10076A00CA80CA92F90ECB6E0DDEF28A946A256AA5
:10077A00266A276A286A296A7BDD00C01FF001C041
:10078A0020F0010E296E74DD00C021F001C022F0B4
:10079A00020E296E6DDD00C023F001C024F0040EA4
:1007AA00296E66DD00C01DF001C01EF0F2A403D060
:1007BA00154A162AF294800E2018006E800E005CEC
:1007CA0002E10F0E1F5C06E2B2DC7F0E2D6E000EF8
:1007DA002E6E89DC800E1E18006E800E005C02E10F
:1007EA000F0E1D5C06E2E1DC7F0E2D6E000E2E6EF2
:1007FA0073DC800E006E800E2218005C02E121502C
:10080A0023080AE2820ED56E0B0ED76EDC0ED66E68
:10081A00010E176E000E186E800E006E800E2218E2
:10082A00005C02E12150230847E3000E181802E198
:10083A00010E171841E1D59E15C000F016C001F04F
:10084A00ADDE19C004F01AC005F01BC006F01CC0CA
:10085A0007F014DE000E046E000E056E200E066E02
:10086A00820E076EBBDE00C025F001C026F002C072
:10087A0027F003C028F0000E046E000E056E160E57
:10088A00066E850E076E0FDD000ED8B0010E006EE3
:10089A0000520BE04CDC25C029F026C02AF027C004
:1008AA002BF028C02CF072DD05D07F0E2D6E000EC5
:0C08BA002E6E12DC176A186A5AD7FFD79E
:020000040030CA
:0D000100021F1EFF8381FF0FC00FE00F40A4
:00000001FF
