:100000000C9438000C9455000C9455000C94550039
:100010000C9455000C9455000C9455000C9455000C
:100020000C9455000C9455000C9455000C945500FC
:100030000C9455000C9457000C9455000C946300DC
:100040000C9472000C9455000C9455000C945500BF
:100050000C9455000C9455000C9455000C945500CC
:100060000C9455000C9455000C9455000C945500BC
:1000700011241FBECFEFD0E1DEBFCDBF11E0A0E065
:10008000B1E0E4E0FAE102C005900D92AE35B107AF
:10009000D9F712E0AEE5B1E001C01D92A231B1077F
:1000A000E1F70E9497030C9479080C9400001F92CA
:1000B0000F920FB60F9211241092D1010F900FBE24
:1000C0000F901F9018951F920F920FB60F92112448
:1000D0008F9382E08093D1018F910F900FBE0F908C
:1000E0001F9018951F920F920FB60F9211248F93A5
:1000F0009F938091F7019091F801181619064CF41E
:100100008091F7019091F80101979093F801809305
:10011000F7018091EA019091EB01181619064CF451
:100120008091EA019091EB0101979093EB0180930C
:10013000EA018091080290910902181619064CF400
:10014000809108029091090201979093090280938F
:1001500008028091FC019091FD01181619064CF4DB
:100160008091FC019091FD0101979093FD01809396
:10017000FC019F918F910F900FBE0F901F901895CB
:1001800080917A00806480937A0080917A0086FD65
:10019000FCCF8091790090E09093F0018093EF0183
:1001A0008091DC019091DD010097D9F58091EF01FC
:1001B0009091F0018639910598F48091EF0190912A
:1001C000F0018837910518F48CE390E014C0609139
:1001D000EF017091F001665070408AEF94E008C022
:1001E0006091EF017091F0016652704080ED93E0F4
:1001F0000E94B50CCB019093DA018093D90181EE76
:1002000080937C0081E090E09093DD018093DC019D
:100210008091D9019091DA019093FF018093FE01C2
:100220000895019701F56091EF017091F0016F5011
:1002300070408EE699E00E94B50C7093DA016093ED
:10024000D90182EE80937C0082E090E09093DD0102
:100250008093DC018091D9019091DA01909307029B
:100260008093060208958091EF019091F0018D37FF
:10027000910590F48091EF019091F001449718F46A
:100280008CE390E014C06091EF017091F00169502F
:1002900070408DE994E008C06091EF017091F00129
:1002A0006852704080E893E00E94B50CCB019093B7
:1002B000DA018093D90180EE80937C001092DD01F9
:1002C0001092DC018091D9019091DA019093CA01DA
:1002D0008093C90108952091D7013091D801220F50
:1002E000331F220F331F8091F5019091F601280FE3
:1002F000391F25303105A9F12630310570F4213040
:10030000310501F121303105C8F022303105F9F015
:100310002430310509F03FC01FC02830310559F1A4
:100320002930310520F426303105A9F51FC02930C8
:10033000310531F12A30310571F528C01092DB0109
:100340008FEF22C080EA8093DB0187EF1DC080E63B
:100350008093DB018BEF18C08AE08093DB018DEF87
:1003600013C08AEA8093DB0185EF0EC08AE6809392
:10037000DB0189EF09C086E08093DB018EEF04C0CA
:1003800086EA8093DB0186EF88B9089586E680933C
:10039000DB018AEF88B908952091D3013091D4010F
:1003A0002230310569F12330310540F42115310542
:1003B00069F02130310509F06BC01BC023303105D5
:1003C000A1F12430310509F063C045C08091E901F5
:1003D000882319F081E090E007C08091EE01882326
:1003E00009F44EC083E090E09093D6018093D5014C
:1003F0004BC08091E901882379F482E090E022C02B
:100400008091E6019091E701892BD1F581E090E0A0
:100410009093E7018093E6013093D6012093D501B4
:100420003093D8012093D70133C08091EE01882307
:1004300039F03093D6012093D50182E090E01BC0C3
:1004400084E090E09093D6018093D5011092E7016B
:100450001092E6011DC08091E6019091E701892B81
:1004600079F481E090E09093E7018093E601309386
:10047000D6012093D5019093D8018093D70108C06D
:100480001092D6011092D5011092D8011092D70186
:100490008091D5019091D6019093D4018093D3019E
:1004A00008952091F1013091F2012230310509F4D3
:1004B0004BC02330310540F42115310569F021305E
:1004C000310509F049C01AC02330310539F1243013
:1004D000310509F041C038C08091D201882319F05C
:1004E00081E090E006C08091C801882369F183E033
:1004F00090E09093F4018093F3012AC08091D2019F
:10050000882349F03093F4012093F3013093F601EE
:100510002093F50121C082E090E011C08091C801D4
:10052000882359F03093F4012093F30182E090E0A6
:100530009093F6018093F5010FC084E090E09093D2
:10054000F4018093F30108C01092F4011092F301BA
:100550001092F6011092F5018091F3019091F4014F
:100560009093F2018093F10108958093E9016093E3
:10057000EE014093D2012093C801089580EA809350
:10058000DB0187EF88B9089580E68093DB018BEF6C
:1005900088B908958AE08093DB018DEF88B90895CA
:1005A00086E08093DB018EEF88B908951092DB011D
:1005B0008FEF88B908958AEA8093DB0185EF88B9C7
:1005C00008958AE68093DB0189EF88B9089586EA69
:1005D0008093DB0186EF88B9089586E68093DB017E
:1005E0008AEF88B9089592E090936E0089EF87BDF5
:1005F00023E025BD94BD80E794E990938900809322
:10060000880020936F0081E08093810082EE8093C8
:100610007C0087E880937A0011B810B88FEF84B916
:1006200015B887B988B98AB91BB81092CC01109255
:10063000CB011092CE011092CD011092D0011092F8
:10064000CF011092DF011092DE011092E1011092B1
:10065000E0011092E3011092E2011092D401109295
:10066000D3011092D6011092D5011092D8011092A8
:10067000D7011092F2011092F1011092F401109240
:10068000F3011092F6011092F501109201021092FE
:1006900000021092030210920202109205021092C0
:1006A00004021092E5011092E4011092DD01109213
:1006B000DC011092ED011092EC011092E701109212
:1006C000E60110920B0210920A0210920702109299
:1006D00006021092CA011092C9011092FF011092F5
:1006E000FE011092FB011092FA011092E9011092A2
:1006F000EE011092D2011092C8011092E8011092FE
:10070000DB010E948C076EE071E070931102609330
:10071000100270930D0260930C0270930F026093AD
:100720000E0280E091E00E948F0878940895EF9285
:10073000FF920F931F93CF93DF930E94F302EE2457
:10074000EA949BEFF92EC2E3D0E004E610E090912A
:10075000DB018091D1018095892385B99091E801D1
:10076000892F8095880F880F8BB9992311F0FBB8DA
:1007700001C0EBB80E94C0008091F7019091F80190
:10078000892B31F4D093F801C093F7010E945102F4
:100790008091EA019091EB01892B31F4D093EB0128
:1007A000C093EA010E94CC01809108029091090255
:1007B000892B31F410930902009308020E949F06CE
:1007C0000E946B01C4CF409100025091010242305F
:1007D000510509F447C04330510540F44115510516
:1007E00091F04130510509F0D3C023C04430510588
:1007F00009F490C04430510508F468C045305105F3
:1008000009F0C6C0B3C080910A0290910B028430F7
:10081000910550F4019690930B0280930A02109276
:10082000030210920202B4C010920B0210920A024C
:10083000A9C0209106023091070280916E0190912B
:100840006F01281B390B6FEF2A3F360744F0273022
:1008500031052CF450930302409302021AC082E047
:1008600090E013C040910602509107022091700160
:1008700030917101CA01821B930B6FEF8A3F96077B
:100880006CF007975CF481E090E090930302809312
:10089000020210920502109204027AC083E090E0F6
:1008A00090930302809302028091040290910502CA
:1008B000019690930502809304023093690120937E
:1008C0006801509365014093640162C02091060263
:1008D000309107028091640190916501821B930B16
:1008E00097FF03C0909581959F4F08971CF084E077
:1008F00090E04AC083E090E090930302809302026C
:1009000030936B0120936A0180910402909105025B
:10091000019627C020910602309107028091640160
:1009200090916501821B930B97FF03C09095819571
:100930009F4F08975CF085E090E0909303028093CE
:100940000202309367012093660122C083E090E0A9
:100950009093030280930202809104029091050219
:100960000296909305028093040212C080910402C3
:1009700090910502059720F081E080935E0102C00E
:1009800010925E0181E090E0909303028093020256
:1009900080910202909103029093010280930002E1
:1009A0000895609166017091670180916A0190914C
:1009B0006B01861B970B9093FB018093FA01CB018F
:1009C0004597099768F480E090E0A0EBB1E480934C
:1009D000720190937301A0937401B093750108950F
:1009E0009B012A50304037FF03C0309521953F4F7F
:1009F000B901882777FD8095982F0E949E0B2AE9E0
:100A000039E949E95EE30E942E0C20E030E048EA33
:100A100051E40E94380B60937201709373018093CC
:100A20007401909375010895CF93DF938091CB016A
:100A30009091CC010497C0F44091060250910702B6
:100A40002091700130917101CA01821B930B0697AE
:100A500058F02417350740F41092CC011092CB01C6
:100A60001092ED011092EC01C091CB01D091CC011C
:100A7000C330D10509F4A8C0C430D10540F4C13059
:100A8000D10509F45BC0229708F065C00DC0C530E0
:100A9000D10509F4F6C0C530D10508F4C5C0C6308B
:100AA000D10509F036C120C11092610180915F012A
:100AB000882319F484E090E002C08AE090E09093EB
:100AC0006301809362012091EC013091ED018091EE
:100AD00062019091630128173907C0F420E030E0EB
:100AE00040E050E060E070E081E090E00E94B502FC
:100AF0008091EC019091ED0101969093ED0180932E
:100B0000EC011092CE011092CD0103C120E030E043
:100B100040E050E060E070E080E090E00E94B502CC
:100B20001092ED011092EC0181E090E09093CE01E3
:100B30008093CD0181E080935F01EBC021E030E044
:100B400040E050E060E070E080E090E00E94B5029C
:100B500082E090E091C080916601909167010A97D0
:100B6000880F991F2091EC013091ED01281739076A
:100B7000D0F482E090E09093CE018093CD0121E00B
:100B800030E040E050E061E070E080E090E00E9402
:100B9000B5028091EC019091ED0101969093ED01E9
:100BA0008093EC01B6C083E090E09093CE018093F7
:100BB000CD0121E030E040E050E060E070E080E016
:100BC00090E00E94B502A1C06091060270910702F8
:100BD00080E090E00E949C0B2091720130917301A3
:100BE00040917401509175010E942A0C181634F03E
:100BF0008091C9019091CA010F9768F420E030E01C
:100C000040E050E060E070E080E090E00E94B502DB
:100C100084E090E031C021E030E040E050E061E06D
:100C200070E080E090E03BC08091C9019091CA01E2
:100C30000797B0F020E030E041E050E061E070E084
:100C400080E090E00E94B5028091EC019091ED016E
:100C500001969093ED018093EC0184E090E03FC019
:100C600020E030E040E050E060E070E081E090E0C3
:100C70000E94B50285E090E09093CE018093CD0173
:100C800044C08091FE019091FF010B97C0F021E0DC
:100C900030E040E050E060E070E081E090E00E94F1
:100CA000B5028091EC019091ED0101969093ED01D8
:100CB0008093EC01D093CE01C093CD012AC020E0F7
:100CC00030E040E050E060E070E080E090E00E94C2
:100CD000B5021092ED011092EC0186E090E0909345
:100CE000CE018093CD0115C020E030E040E050E01F
:100CF00060E070E080E090E00E94B502D093CE0109
:100D0000C093CD0181E0809361011092ED011092BA
:100D1000EC018091CD019091CE019093CC01809314
:100D2000CB01DF91CF91089520E030E041E050E029
:100D300060E070E081E090E00E94B502089580914B
:100D4000C9019091CA019F938F9384E491E09F938E
:100D50008F9380910E0290910F029F938F930E9428
:100D60007C088DB79EB706960FB6F8949EBF0FBE4F
:100D70008DBF2091DE013091DF012130310589F0F6
:100D80002130310548F02230310509F48EC023307E
:100D9000310509F0A8C09FC010925F0181E090E08A
:100DA00095C08091E801882309F45EC080916101BB
:100DB000882309F059C082E090E09093E10180938C
:100DC000E00120E030E040E050E061E070E080E0F1
:100DD00090E00E94B5021092E3011092E20160914E
:100DE00066017091670180916A0190916B01861B89
:100DF000970B9093FB018093FA01CB0145970997DC
:100E000068F480E090E0A0EBB1E4809372019093ED
:100E10007301A0937401B093750123C09B012A5004
:100E2000304037FF03C0309521953F4FB9018827E7
:100E300077FD8095982F0E949E0B2AE939E949E9B0
:100E40005EE30E942E0C20E030E048EA51E40E946C
:100E5000380B6093720170937301809374019093C7
:100E6000750180EA9CE81CC081E090E09093E1016C
:100E70008093E0011092E3011092E2010E94E303EB
:100E800080915E018093E80120E030E040E050E096
:100E900060E070E081E090E00E94B50280E194EAB9
:100EA00090938900809388001EC0809161018823FF
:100EB00059F43093E1012093E0011092E301109284
:100EC000E2010E9414050FC083E090E09093E101DD
:100ED0008093E00104C03093E1012093E00110927F
:100EE000E3011092E2018091E0019091E101909381
:100EF000DF018093DE0180916E0190916F019093EC
:100F00007101809370018091060290910702909385
:100F10006F0180936E01089587E68093C40088E195
:100F20008093C10008951F93182F873049F4609172
:100F300010027091110285E591E00E948F080BC0AC
:100F40008A3019F48DE00E9493078091C00085FFDC
:100F5000FCCF1093C60080E090E01F910895EF92BF
:100F6000FF920F931F93CF93DF937C0180917601C3
:100F700090917701892B09F0A0C008E711E08091DA
:100F8000C00087FFFCCF8091C00084FF03C02EEF1C
:100F90003FEFA7C08091C00083FDA1C09091C60023
:100FA0009D3011F09A3069F48AE0F8018083B7012E
:100FB0000E94930788E791E09093770180937601F0
:100FC0007CC0993009F490E2892F80528F3510F05F
:100FD000903A78F0F1E0073C1F0719F4B70187E079
:100FE00005C0F80191938F01B701892F0E949307E3
:100FF000C6CF923139F1933138F4933009F46FC090
:10100000983009F0BCCF09C0973109F44BC09F3725
:1010100021F0953109F0B3CF32C0F1E008371F0756
:1010200009F008F4ACCFB70188E00E949307B7013C
:1010300080E20E949307B70188E00E949307015065
:1010400010409DCFB7018DE00E949307C8E7D1E023
:1010500004C0B70189910E949307C017D107C8F354
:101060008ECFB70188E00E949307B70180E20E940B
:101070009307B70188E00E9493070150104081E078
:101080000837180709F068F77ACFB70188E00E949F
:101090009307B70180E20E949307B70188E00E949E
:1010A00093078E01E1E008371E0709F008F467CFC7
:1010B000E8018A91803249F762CFE0917601F091A0
:1010C00077018191F0937701E09376018A3021F4E2
:1010D0001092770110927601282F30E002C02FEF96
:1010E0003FEFC901DF91CF911F910F91FF90EF90DA
:1010F0000895F8940C94000DA0E0B0E0E2E8F8E068
:101100000C94D90CCE010996AC016F8178858D8144
:101110009E810E94B8082096E2E00C94F50CEF92B4
:10112000FF920F931F93CF93DF937C018B01DB0121
:1011300013968C9181FD03C0CFEFDFEF13C0C0E0A9
:10114000D0E00BC0D8011896ED91FC911997B80129
:101150000995892B11F0CFEFDFEFF70181917F0126
:10116000882381F7CE01CDB7DEB7E6E00C94F10C11
:10117000ABE0B0E0EEEBF8E00C94C90C3C012B01C5
:101180005A01FC0117821682838181FD03C06FEF33
:101190007FEFC8C19AE0892E1E010894211C311CE2
:1011A000F3012381F20123FD859123FF81912F011A
:1011B000882309F4B4C1853239F423FD859123FFD6
:1011C00081912F01853229F4B30190E00E94AD0A8C
:1011D000E7CF982FDD24CC249924FFE1FD15D0F032
:1011E0009B3269F09C3228F4903259F0933291F49A
:1011F0000EC09D3249F0903369F441E024C052E0C2
:10120000D52A84E0D82A28C098E0D92A25C0E0E170
:10121000DE2A22C0D7FC29C0892F80538A3070F47F
:10122000D6FE05C0989C902C1124980E15C0C89C21
:10123000C02C1124C80EF0E2DF2A0EC09E3229F421
:10124000D6FC6DC140E4D42A07C09C3619F450E89E
:10125000D52A02C0983649F4F20123FD959123FF67
:1012600091912F01992309F0B8CF892F85548330AC
:1012700018F08052833038F444E050E0A40EB51EDC
:101280005FE359830FC0933631F0933779F093358C
:1012900009F056C020C0F5018081898342E050E00A
:1012A000A40EB51E710101E010E012C0F501E0804E
:1012B000F180D6FC03C06FEF7FEF02C0692D70E0B4
:1012C00042E050E0A40EB51EC7010E94A20A8C01A4
:1012D0005FE7D52214C0F501E080F180D6FC03C0A1
:1012E0006FEF7FEF02C0692D70E042E050E0A40E86
:1012F000B51EC7010E94970A8C0150E8D52AD3FE7B
:1013000007C01AC0B30180E290E00E94AD0ACA94FF
:101310008C2D90E008171907A8F30EC0F701D7FC31
:101320008591D7FE81917F01B30190E00E94AD0AC3
:10133000C110CA94015010400115110579F7ECC095
:10134000943611F0993671F5D7FE08C0F501E080AA
:10135000F1800281138144E050E00AC0F5018081F0
:1013600091817C010027F7FC0095102F42E050E0AE
:10137000A40EB51E5FE6D52217FF0AC01095009592
:10138000F094E094E11CF11C011D111D80E8D82AA5
:101390002AE030E0A101C801B7010E94D90AF82E65
:1013A000F21840C0953729F41D2D1F7E2AE030E049
:1013B0001DC01D2D197F9F3661F0903720F49835A0
:1013C00009F0ADC00FC0903739F0983709F0A7C0C9
:1013D00004C028E030E00AC0106114FD146020E170
:1013E00030E004C014FD166020E132E017FF08C0B1
:1013F000F501608171818281938144E050E008C0F1
:10140000F50180819181BC0180E090E042E050E0F4
:10141000A40EB51EA1010E94D90AF82EF2188FE77A
:10142000D82ED122D6FE0BC05EEFD522F91438F4A7
:10143000D4FE07C0D2FC05C08FEED82202C01F2DFB
:1014400001C0192DD4FE0DC0FE01EF0DF11D8081EC
:10145000803319F499EED92208C01F5FD2FE05C06F
:1014600003C08D2D867809F01F5F0D2DD3FC14C0AD
:10147000D0FE0FC01C1510F09F2C0BC09F2C9C0C95
:10148000911A1C2D06C0B30180E290E00E94AD0AC3
:101490001F5F1C15C0F304C01C1510F4C11A01C055
:1014A000CC2404FF10C0B30180E390E00E94AD0A99
:1014B00002FF1EC001FD03C088E790E002C088E57E
:1014C00090E0B3010CC0802F867891F001FF02C03C
:1014D0008BE201C080E2D7FC8DE2B30190E00E9474
:1014E000AD0A06C0B30180E390E00E94AD0A9A9471
:1014F000F914C0F3FA94F101EF0DF11DB3018081ED
:1015000090E00E94AD0AFF20A9F706C0B30180E277
:1015100090E00E94AD0ACA94CC20C1F741CEF301FD
:1015200066817781CB012B96E2E10C94E50CFC01FE
:101530000590615070400110D8F7809590958E0FFE
:101540009F1F0895FC016150704001900110D8F771
:10155000809590958E0F9F1F08950F931F93CF93A3
:10156000DF938C01EB018B8181FF1BC082FF0DC0DB
:101570002E813F818C819D812817390764F4E88191
:10158000F9810193F983E88306C0E885F985802F06
:101590000995892B31F48E819F8101969F838E83DB
:1015A00002C00FEF1FEFC801DF91CF911F910F9184
:1015B0000895FA01AA27283051F1203181F1E894E9
:1015C0006F936E7F6E5F7F4F8F4F9F4FAF4FB1E036
:1015D0003ED0B4E03CD0670F781F891F9A1FA11D31
:1015E000680F791F8A1F911DA11D6A0F711D811D32
:1015F000911DA11D20D009F468943F912AE0269FF7
:1016000011243019305D3193DEF6CF010895462F55
:101610004770405D4193B3E00FD0C9F7F6CF462F36
:101620004F70405D4A3318F0495D31FD405241939F
:1016300002D0A9F7EACFB4E0A6959795879577955C
:101640006795BA95C9F700976105710508959B01E3
:10165000AC010A2E06945795479537952795BA956C
:10166000C9F7620F731F841F951FA01D089550585E
:10167000BB27AA270ED0B4C0A5D030F0AAD020F046
:1016800031F49F3F11F41EF49AC00EF4E095E7FB8D
:1016900090C0E92FB6D080F3BA17620773078407AA
:1016A000950718F071F49EF5CEC00EF4E0950B2E60
:1016B000BA2FA02D0B01B90190010C01CA01A001A4
:1016C0001124FF27591B99F0593F50F4503E68F1FF
:1016D0001A16F040A22F232F342F4427585FF3CF40
:1016E000469537952795A795F0405395C9F77EF411
:1016F0001F16BA0B620B730B840BBAF09150A1F05A
:10170000FF0FBB1F661F771F881FC2F70EC0BA0FDF
:10171000621F731F841F48F4879577956795B79567
:10172000F7959E3F08F0B3CF9395880F08F099275F
:10173000EE0F979587950895E89409C097FB3EF4BE
:1017400090958095709561957F4F8F4F9F4F99230E
:10175000A9F0F92F96E9BB279395F695879577958C
:101760006795B795F111F8CFFAF4BB0F11F460FF4C
:101770001BC06F5F7F4F8F4F9F4F16C0882311F0A4
:1017800096E911C0772321F09EE8872F762F05C0B8
:10179000662371F096E8862F70E060E02AF09A9553
:1017A000660F771F881FDAF7880F9695879597F948
:1017B000089597F99F6780E870E060E008959FEFD3
:1017C00080EC089500240A941616170618060906D8
:1017D000089500240A9412161306140605060895A7
:1017E000092E0394000C11F4882352F0BB0F40F42F
:1017F000BF2B11F460FF04C06F5F7F4F8F4F9F4F6F
:10180000089557FD9058440F551F59F05F3F71F0F0
:101810004795880F97FB991F61F09F3F79F0879557
:101820000895121613061406551FF2CF4695F1DFE0
:1018300008C0161617061806991FF1CF8695710570
:10184000610508940895E894BB2766277727CB01A4
:1018500097F9089566D008F48FEF08950BD0C0CFA4
:10186000B1DF28F0B6DF18F0952309F0A2CFA7CF9B
:101870001124EACFC6DFA0F3959FD1F3950F50E076
:10188000551F629FF001729FBB27F00DB11D639F32
:10189000AA27F00DB11DAA1F649F6627B00DA11DD8
:1018A000661F829F2227B00DA11D621F739FB00D7E
:1018B000A11D621F839FA00D611D221F749F3327EE
:1018C000A00D611D231F849F600D211D822F762F87
:1018D0006A2F11249F5750408AF0E1F088234AF084
:1018E000EE0FFF1FBB1F661F771F881F91505040D0
:1018F000A9F79E3F510570F05CCFA6CF5F3FECF398
:10190000983EDCF3869577956795B795F795E795BB
:101910009F5FC1F7FE2B880F911D9695879597F9CC
:101920000895990F0008550FAA0BE0E8FEEF161670
:101930001706E807F907C0F012161306E407F507C3
:1019400098F0621B730B840B950B39F40A2661F037
:10195000232B242B252B21F408950A2609F4A140DA
:10196000A6958FEF811D811D0895AA1BBB1B51E118
:1019700007C0AA1FBB1FA617B70710F0A61BB70BFF
:10198000881F991F5A95A9F780959095BC01CD01A4
:1019900008952F923F924F925F926F927F928F9213
:1019A0009F92AF92BF92CF92DF92EF92FF920F93EE
:1019B0001F93CF93DF93CDB7DEB7CA1BDB0B0FB6F8
:1019C000F894DEBF0FBECDBF09942A8839884888B5
:1019D0005F846E847D848C849B84AA84B984C8844B
:1019E000DF80EE80FD800C811B81AA81B981CE0F42
:1019F000D11D0FB6F894DEBF0FBECDBFED01089527
:041A0000F894FFCF88
:101A04005374617274696E672E2E2E0A0D000000E5
:101A14000003000000009307AF0700000500050065
:101A2400050032003200320032003200320032004F
:101A340032003200320032000500050005000500C6
:101A4400050005007244697374616E63653A20256C
:0E1A540064200A0D002A72696E672A0A0000DB
:00000001FF
