:10000000B3EF00F00000000000EF00F0000000007F
:0A0010000000000000000000F3D71C
:10001C000B6A0A6A096A00500402F4CF09F0F3CFA4
:10002C0008F001500502F4CF0BF0F3CF0AF00050AA
:10003C000502F3500926F4500A22E86A0B220150FB
:10004C000402F3500926F4500A22E86A0B2208C075
:10005C0000F009C001F00AC002F00BC003F012005E
:10006C00CB50010F006E016A000E012221C004F07A
:10007C00000E056ECDDF060E026E00C004F001C04E
:10008C0005F0025005E005320432059EFF0FFAD749
:10009C00040E016E04C000F0015004E00036009024
:1000AC00FF0FFBD7300E0014036E04C000F005C028
:1000BC0001F001320032019E01320032019E00C07B
:0C00CC00BEFF0F0EBD160350BD12120047
:0A00D8009494CA840C0EBD121200AD
:0C00E200240E0D6E0D2EFED70000120043
:0A00EE009484CA94F00EBD161200AF
:1000F800C26A070EC012C08E1DC000F00036009004
:10010800003600900050C212C280E7DFC282C2A24D
:1001180001D0FDD7C4CF01F0006AC3500012000E11
:060128000112C29012005A
:10012E000900F5CFE6FF0006FBE10106F9E112003A
:08013E00BE6ABD98BD9A1200D3
:0E014600C8DF1DC021F08FDF8288829A120070
:0E015400C1DF1DC021F088DF8298828A120070
:04016200C5DF1200E3
:100166000A0EC16E6F0E926ECA80CA927C0ECB6E5C
:10017600E3DF936A946A7F0E1D6E000E1E6EE0DF4B
:100186001D6AB7DF00C019F001C01AF0010E1D6E1E
:10019600B0DF00C01BF001C01CF0020E1D6EA9DF0F
:1001A60000C015F001C016F0030E1D6EA2DF00C0E0
:1001B60017F001C018F00A0E8A6E210E0C6E760E2C
:1001C6000D6E0D2EFED70C2EFCD70000090E8A6E82
:1001D600210E0C6E760E0D6E0D2EFED70C2EFCD754
:1001E6000000050E8A6E210E0C6E760E0D6E0D2E1B
:1001F600FED70C2EFCD70000060E8A6E210E0C6E62
:10020600760E0D6E0D2EFED70C2EFCD70000800E3E
:10021600010A006E800E1A18005C02E1195063088C
:1002260005E2C80E1D6E000E1E6E91DF800E010ADD
:10023600006E800E1818005C02E11750630805E294
:10024600C80E1D6E000E1E6E7BDF800E010A006E4C
:10025600800E1C18005C02E11B50630805E2FF0ECD
:100266001D6E000E1E6E73DF800E010A006E800E7C
:100276001618005C02E11550630801E26FDF80D7B3
:02028600FFD7A0
:020000040030CA
:0D000100021F1EFF8381FF0FC00FE00F40A4
:00000001FF
