:1000000016EF00F00000000000EF00F0000000001C
:0A0010000000000000000000F3D71C
:10001C000900F5CFE6FF0006FBE10106F9E112004D
:10002C00936A0C0E8A6E820E0C6EDD0E0D6E0D2E0A
:10003C00FED70C2EFCD700000000060E8A6E820E36
:10004C000C6EDD0E0D6E0D2EFED70C2EFCD70000A7
:10005C000000030E8A6E820E0C6EDD0E0D6E0D2EE0
:10006C00FED70C2EFCD700000000090E8A6E820E03
:10007C000C6EDD0E0D6E0D2EFED70C2EFCD7000077
:06008C000000CFD7FFD7F2
:020000040030CA
:0D000100021F1EFF8381FF0FC00FE00F40A4
:00000001FF
