:100000000C9438000C9455000C9455000C94550039
:100010000C9455000C9455000C9455000C9455000C
:100020000C9455000C9455000C9455000C945500FC
:100030000C9455000C9455000C9455000C945500EC
:100040000C9457000C9455000C9455000C945500DA
:100050000C9455000C9455000C9455000C945500CC
:100060000C9455000C9455000C9455000C945500BC
:1000700011241FBECFEFD0E1DEBFCDBF11E0A0E065
:10008000B1E0E8E4FAE002C005900D92AA32B107AF
:10009000D9F711E0AAE2B1E001C01D92AC38B10776
:1000A000E1F70E94B2000C9422050C9400001F920C
:1000B0000F920FB60F9211248F93809181018823A4
:1000C00029F0809181018150809381018091850187
:1000D000882329F0809185018150809385018F913B
:1000E0000F900FBE0F901F9018951F9392E0909362
:1000F0006E0089EF87BD83E085BD94BD81E4809368
:10010000810080E280936F0081EE80937C0087E81D
:1001100080937A001092820111B812B81FEF14B9BF
:1001200015B888EC809381018EE190E090937D0179
:1001300080937C010E942F0164E171E070938B0138
:1001400060938A017093870160938601709389019F
:100150006093880180E091E00E942F0215B97894A5
:100160001F910895FF920F931F93CF93DF930E94E7
:100170007500109282011092800188EE93E020E9D0
:1001800031E0F9013197F1F70197D9F788ECF82EB2
:100190000EE011E0CCE3D0E0809181018823E1F70B
:1001A000809180018F5F80938001809180018A30EF
:1001B00099F710928001F092810180917A00806419
:1001C00080937A0080917A0086FDFCCF809179003F
:1001D00090E09093840180938301809183019091BA
:1001E000840186399105A0F4809183019091840166
:1001F0000B9748F0609183017091840166507040C4
:100200008AEF94E00DC0D0937F01C0937E010EC0B1
:1002100060918301709184016652704080ED93E09B
:100220000E94D70470937F0160937E0180917E01CC
:1002300090917F019F938F931F930F9380918801DB
:10024000909189019F938F930E941C028DB79EB756
:1002500006960FB6F8949EBF0FBE8DBF9DCF87E662
:100260008093C40088E18093C10008951F93182FE4
:10027000873049F460918A0170918B0182E291E0AC
:100280000E942F020BC08A3019F48DE00E943601C3
:100290008091C00085FFFCCF1093C60080E090E005
:1002A0001F910895EF92FF920F931F93CF93DF93C7
:1002B0007C0180912A0190912B01892B09F0A0C02B
:1002C0000CE211E08091C00087FFFCCF8091C0005C
:1002D00084FF03C02EEF3FEFA7C08091C00083FDD5
:1002E000A1C09091C6009D3011F09A3069F48AE067
:1002F000F8018083B7010E9436018CE291E090936F
:100300002B0180932A017CC0993009F490E2892F57
:1003100080528F3510F0903A78F0F1E00B371F07DC
:1003200019F4B70187E005C0F80191938F01B70177
:10033000892F0E943601C6CF923139F1933138F4BA
:10034000933009F46FC0983009F0BCCF09C09731E1
:1003500009F44BC09F3721F0953109F0B3CF32C07B
:10036000F1E00C321F0709F008F4ACCFB70188E0C8
:100370000E943601B70180E20E943601B70188E091
:100380000E943601015010409DCFB7018DE00E94C0
:100390003601CCE2D1E004C0B70189910E94360158
:1003A000C017D107C8F38ECFB70188E00E9436018D
:1003B000B70180E20E943601B70188E00E94360151
:1003C0000150104081E00C32180709F068F77ACF2D
:1003D000B70188E00E943601B70180E20E94360131
:1003E000B70188E00E9436018E01E1E00C321E0761
:1003F00009F008F467CFE8018A91803249F762CFAB
:10040000E0912A01F0912B018191F0932B01E0936F
:100410002A018A3021F410922B0110922A01282FF0
:1004200030E002C02FEF3FEFC901DF91CF911F9164
:100430000F91FF90EF900895A0E0B0E0E2E2F2E0CB
:100440000C94FB04CE010996AC016F8178858D81F7
:100450009E810E9458022096E2E00C941705EF92CC
:10046000FF920F931F93CF93DF937C018B01DB01EE
:1004700013968C9181FD03C0CFEFDFEF13C0C0E076
:10048000D0E00BC0D8011896ED91FC911997B801F6
:100490000995892B11F0CFEFDFEFF70181917F01F3
:1004A000882381F7CE01CDB7DEB7E6E00C941305C3
:1004B000ABE0B0E0EEE5F2E00C94EB043C012B0184
:1004C0005A01FC0117821682838181FD03C06FEF00
:1004D0007FEFC8C19AE0892E1E010894211C311CAF
:1004E000F3012381F20123FD859123FF81912F01E7
:1004F000882309F4B4C1853239F423FD859123FFA3
:1005000081912F01853229F4B30190E00E944D04BE
:10051000E7CF982FDD24CC249924FFE1FD15D0F0FE
:100520009B3269F09C3228F4903259F0933291F466
:100530000EC09D3249F0903369F441E024C052E08E
:10054000D52A84E0D82A28C098E0D92A25C0E0E13D
:10055000DE2A22C0D7FC29C0892F80538A3070F44C
:10056000D6FE05C0989C902C1124980E15C0C89CEE
:10057000C02C1124C80EF0E2DF2A0EC09E3229F4EE
:10058000D6FC6DC140E4D42A07C09C3619F450E86B
:10059000D52A02C0983649F4F20123FD959123FF34
:1005A00091912F01992309F0B8CF892F8554833079
:1005B00018F08052833038F444E050E0A40EB51EA9
:1005C0005FE359830FC0933631F0933779F0933559
:1005D00009F056C020C0F5018081898342E050E0D7
:1005E000A40EB51E710101E010E012C0F501E0801B
:1005F000F180D6FC03C06FEF7FEF02C0692D70E081
:1006000042E050E0A40EB51EC7010E9442048C01D6
:100610005FE7D52214C0F501E080F180D6FC03C06D
:100620006FEF7FEF02C0692D70E042E050E0A40E52
:10063000B51EC7010E9437048C0150E8D52AD3FEAD
:1006400007C01AC0B30180E290E00E944D04CA9432
:100650008C2D90E008171907A8F30EC0F701D7FCFE
:100660008591D7FE81917F01B30190E00E944D04F6
:10067000C110CA94015010400115110579F7ECC062
:10068000943611F0993671F5D7FE08C0F501E08077
:10069000F1800281138144E050E00AC0F5018081BD
:1006A00091817C010027F7FC0095102F42E050E07B
:1006B000A40EB51E5FE6D52217FF0AC0109500955F
:1006C000F094E094E11CF11C011D111D80E8D82A72
:1006D0002AE030E0A101C801B7010E947904F82E98
:1006E000F21840C0953729F41D2D1F7E2AE030E016
:1006F0001DC01D2D197F9F3661F0903720F498356D
:1007000009F0ADC00FC0903739F0983709F0A7C095
:1007100004C028E030E00AC0106114FD146020E13C
:1007200030E004C014FD166020E132E017FF08C07D
:10073000F501608171818281938144E050E008C0BD
:10074000F50180819181BC0180E090E042E050E0C1
:10075000A40EB51EA1010E947904F82EF2188FE7AD
:10076000D82ED122D6FE0BC05EEFD522F91438F474
:10077000D4FE07C0D2FC05C08FEED82202C01F2DC8
:1007800001C0192DD4FE0DC0FE01EF0DF11D8081B9
:10079000803319F499EED92208C01F5FD2FE05C03C
:1007A00003C08D2D867809F01F5F0D2DD3FC14C07A
:1007B000D0FE0FC01C1510F09F2C0BC09F2C9C0C62
:1007C000911A1C2D06C0B30180E290E00E944D04F6
:1007D0001F5F1C15C0F304C01C1510F4C11A01C022
:1007E000CC2404FF10C0B30180E390E00E944D04CC
:1007F00002FF1EC001FD03C088E790E002C088E54B
:1008000090E0B3010CC0802F867891F001FF02C008
:100810008BE201C080E2D7FC8DE2B30190E00E9440
:100820004D0406C0B30180E390E00E944D049A9409
:10083000F914C0F3FA94F101EF0DF11DB3018081B9
:1008400090E00E944D04FF20A9F706C0B30180E2AA
:1008500090E00E944D04CA94CC20C1F741CEF30130
:1008600066817781CB012B96E2E10C940705FC01B0
:100870000590615070400110D8F7809590958E0FCB
:100880009F1F0895FC016150704001900110D8F73E
:10089000809590958E0F9F1F08950F931F93CF9370
:1008A000DF938C01EB018B8181FF1BC082FF0DC0A8
:1008B0002E813F818C819D812817390764F4E8815E
:1008C000F9810193F983E88306C0E885F985802FD3
:1008D0000995892B31F48E819F8101969F838E83A8
:1008E00002C00FEF1FEFC801DF91CF911F910F9151
:1008F0000895FA01AA27283051F1203181F1E894B6
:100900006F936E7F6E5F7F4F8F4F9F4FAF4FB1E002
:100910003ED0B4E03CD0670F781F891F9A1FA11DFD
:10092000680F791F8A1F911DA11D6A0F711D811DFE
:10093000911DA11D20D009F468943F912AE0269FC3
:1009400011243019305D3193DEF6CF010895462F22
:100950004770405D4193B3E00FD0C9F7F6CF462F03
:100960004F70405D4A3318F0495D31FD405241936C
:1009700002D0A9F7EACFB4E0A69597958795779529
:100980006795BA95C9F700976105710508959B01B0
:10099000AC010A2E06945795479537952795BA9539
:1009A000C9F7620F731F841F951FA01D0895AA1B0E
:1009B000BB1B51E107C0AA1FBB1FA617B70710F04A
:1009C000A61BB70B881F991F5A95A9F7809590957C
:1009D000BC01CD0108952F923F924F925F926F928A
:1009E0007F928F929F92AF92BF92CF92DF92EF92BF
:1009F000FF920F931F93CF93DF93CDB7DEB7CA1B40
:100A0000DB0B0FB6F894DEBF0FBECDBF09942A886A
:100A1000398848885F846E847D848C849B84AA8412
:100A2000B984C884DF80EE80FD800C811B81AA819F
:100A3000B981CE0FD11D0FB6F894DEBF0FBECDBF6A
:080A4000ED010895F894FFCFC9
:100A48005374617274696E672E2E2E0A0D00256428
:100A5800200A0D00000000030000000036015201CA
:0A0A680000002A72696E672A0A0076
:00000001FF
