:100000000C9438000C9455000C9455000C94550039
:100010000C9455000C9455000C9455000C9455000C
:100020000C9455000C9455000C9455000C945500FC
:100030000C9455000C9455000C9455000C945500EC
:100040000C9457000C9455000C9455000C945500DA
:100050000C9455000C9455000C9455000C945500CC
:100060000C9455000C9455000C9455000C945500BC
:1000700011241FBECFEFD0E1DEBFCDBF11E0A0E065
:10008000B1E0ECE7F1E002C005900D92A030B107BD
:10009000D9F711E0A0E0B1E001C01D92A430B10792
:1000A000E1F70E948F000C94BC000C9400001F929A
:1000B0000F920FB60F9211248F939F93809102019C
:1000C00090910301181619064CF480910201909149
:1000D0000301019790930301809302019F918F91F7
:1000E0000F900FBE0F901F90189592E090936E00A6
:1000F00089EF87BD83E085BD94BD81E48093810055
:1001000080E280936F009FEF91B981E082B994B94A
:1001100085B997B988B99AB91BB8789408950E949F
:10012000750020E931E08091000190910101019674
:10013000909301018093000192B182B1990F881FC1
:100140008827881F982B92B995B185B1990F881F80
:100150008827881F982B95B998B188B1990F881F67
:100160008827881F982B98B980E197E2F901319789
:0C017000F1F70197D9F7D7CFF894FFCF33
:00000001FF
